{
  "contractName": "KeyValueStorage",
  "abi": [
    {
      "constant": true,
      "inputs": [
        {
          "name": "key",
          "type": "bytes32"
        }
      ],
      "name": "getAddress",
      "outputs": [
        {
          "name": "",
          "type": "address"
        }
      ],
      "payable": false,
      "stateMutability": "view",
      "type": "function",
      "signature": "0x21f8a721"
    },
    {
      "constant": true,
      "inputs": [
        {
          "name": "key",
          "type": "bytes32"
        }
      ],
      "name": "getBytes",
      "outputs": [
        {
          "name": "",
          "type": "bytes32"
        }
      ],
      "payable": false,
      "stateMutability": "view",
      "type": "function",
      "signature": "0xc031a180"
    },
    {
      "constant": true,
      "inputs": [
        {
          "name": "key",
          "type": "bytes32"
        }
      ],
      "name": "getUint",
      "outputs": [
        {
          "name": "",
          "type": "uint256"
        }
      ],
      "payable": false,
      "stateMutability": "view",
      "type": "function",
      "signature": "0xbd02d0f5"
    },
    {
      "constant": true,
      "inputs": [
        {
          "name": "key",
          "type": "bytes32"
        }
      ],
      "name": "getBool",
      "outputs": [
        {
          "name": "",
          "type": "bool"
        }
      ],
      "payable": false,
      "stateMutability": "view",
      "type": "function",
      "signature": "0x7ae1cfca"
    },
    {
      "constant": true,
      "inputs": [
        {
          "name": "key",
          "type": "bytes32"
        }
      ],
      "name": "getString",
      "outputs": [
        {
          "name": "",
          "type": "string"
        }
      ],
      "payable": false,
      "stateMutability": "view",
      "type": "function",
      "signature": "0x986e791a"
    },
    {
      "constant": false,
      "inputs": [
        {
          "name": "key",
          "type": "bytes32"
        },
        {
          "name": "value",
          "type": "address"
        }
      ],
      "name": "setAddress",
      "outputs": [],
      "payable": false,
      "stateMutability": "nonpayable",
      "type": "function",
      "signature": "0xca446dd9"
    },
    {
      "constant": false,
      "inputs": [
        {
          "name": "key",
          "type": "bytes32"
        },
        {
          "name": "value",
          "type": "bytes32"
        }
      ],
      "name": "setBytes",
      "outputs": [],
      "payable": false,
      "stateMutability": "nonpayable",
      "type": "function",
      "signature": "0xd5d2c560"
    },
    {
      "constant": false,
      "inputs": [
        {
          "name": "key",
          "type": "bytes32"
        },
        {
          "name": "value",
          "type": "uint256"
        }
      ],
      "name": "setUint",
      "outputs": [],
      "payable": false,
      "stateMutability": "nonpayable",
      "type": "function",
      "signature": "0xe2a4853a"
    },
    {
      "constant": false,
      "inputs": [
        {
          "name": "key",
          "type": "bytes32"
        },
        {
          "name": "value",
          "type": "bool"
        }
      ],
      "name": "setBool",
      "outputs": [],
      "payable": false,
      "stateMutability": "nonpayable",
      "type": "function",
      "signature": "0xabfdcced"
    },
    {
      "constant": false,
      "inputs": [
        {
          "name": "key",
          "type": "bytes32"
        },
        {
          "name": "value",
          "type": "string"
        }
      ],
      "name": "setString",
      "outputs": [],
      "payable": false,
      "stateMutability": "nonpayable",
      "type": "function",
      "signature": "0x6e899550"
    },
    {
      "constant": false,
      "inputs": [
        {
          "name": "key",
          "type": "bytes32"
        }
      ],
      "name": "deleteAddress",
      "outputs": [],
      "payable": false,
      "stateMutability": "nonpayable",
      "type": "function",
      "signature": "0x0e14a376"
    },
    {
      "constant": false,
      "inputs": [
        {
          "name": "key",
          "type": "bytes32"
        }
      ],
      "name": "deleteBytes",
      "outputs": [],
      "payable": false,
      "stateMutability": "nonpayable",
      "type": "function",
      "signature": "0x616b59f6"
    },
    {
      "constant": false,
      "inputs": [
        {
          "name": "key",
          "type": "bytes32"
        }
      ],
      "name": "deleteUint",
      "outputs": [],
      "payable": false,
      "stateMutability": "nonpayable",
      "type": "function",
      "signature": "0xe2b202bf"
    },
    {
      "constant": false,
      "inputs": [
        {
          "name": "key",
          "type": "bytes32"
        }
      ],
      "name": "deleteBool",
      "outputs": [],
      "payable": false,
      "stateMutability": "nonpayable",
      "type": "function",
      "signature": "0x2c62ff2d"
    },
    {
      "constant": false,
      "inputs": [
        {
          "name": "key",
          "type": "bytes32"
        }
      ],
      "name": "deleteString",
      "outputs": [],
      "payable": false,
      "stateMutability": "nonpayable",
      "type": "function",
      "signature": "0xf6bb3cc4"
    }
  ],
  "bytecode": "0x608060405234801561001057600080fd5b50610dc2806100206000396000f3fe6080604052600436106100db576000357c0100000000000000000000000000000000000000000000000000000000900463ffffffff1680630e14a376146100e057806321f8a7211461011b5780632c62ff2d14610196578063616b59f6146101d15780636e8995501461020c5780637ae1cfca146102de578063986e791a14610331578063abfdcced146103e5578063bd02d0f51461042c578063c031a1801461047b578063ca446dd9146104ca578063d5d2c56014610525578063e2a4853a1461056a578063e2b202bf146105af578063f6bb3cc4146105ea575b600080fd5b3480156100ec57600080fd5b506101196004803603602081101561010357600080fd5b8101908080359060200190929190505050610625565b005b34801561012757600080fd5b506101546004803603602081101561013e57600080fd5b810190808035906020019092919050505061069a565b604051808273ffffffffffffffffffffffffffffffffffffffff1673ffffffffffffffffffffffffffffffffffffffff16815260200191505060405180910390f35b3480156101a257600080fd5b506101cf600480360360208110156101b957600080fd5b8101908080359060200190929190505050610713565b005b3480156101dd57600080fd5b5061020a600480360360208110156101f457600080fd5b8101908080359060200190929190505050610776565b005b34801561021857600080fd5b506102dc6004803603604081101561022f57600080fd5b81019080803590602001909291908035906020019064010000000081111561025657600080fd5b82018360208201111561026857600080fd5b8035906020019184600183028401116401000000008311171561028a57600080fd5b91908080601f016020809104026020016040519081016040528093929190818152602001838380828437600081840152601f19601f8201169050808301925050505050505091929192905050506107cd565b005b3480156102ea57600080fd5b506103176004803603602081101561030157600080fd5b8101908080359060200190929190505050610836565b604051808215151515815260200191505060405180910390f35b34801561033d57600080fd5b5061036a6004803603602081101561035457600080fd5b810190808035906020019092919050505061089d565b6040518080602001828103825283818151815260200191508051906020019080838360005b838110156103aa57808201518184015260208101905061038f565b50505050905090810190601f1680156103d75780820380516001836020036101000a031916815260200191505b509250505060405180910390f35b3480156103f157600080fd5b5061042a6004803603604081101561040857600080fd5b810190808035906020019092919080351515906020019092919050505061098f565b005b34801561043857600080fd5b506104656004803603602081101561044f57600080fd5b81019080803590602001909291905050506109fb565b6040518082815260200191505060405180910390f35b34801561048757600080fd5b506104b46004803603602081101561049e57600080fd5b8101908080359060200190929190505050610a55565b6040518082815260200191505060405180910390f35b3480156104d657600080fd5b50610523600480360360408110156104ed57600080fd5b8101908080359060200190929190803573ffffffffffffffffffffffffffffffffffffffff169060200190929190505050610aaf565b005b34801561053157600080fd5b506105686004803603604081101561054857600080fd5b810190808035906020019092919080359060200190929190505050610b41565b005b34801561057657600080fd5b506105ad6004803603604081101561058d57600080fd5b810190808035906020019092919080359060200190929190505050610b9a565b005b3480156105bb57600080fd5b506105e8600480360360208110156105d257600080fd5b8101908080359060200190929190505050610bf3565b005b3480156105f657600080fd5b506106236004803603602081101561060d57600080fd5b8101908080359060200190929190505050610c4a565b005b6000803373ffffffffffffffffffffffffffffffffffffffff1673ffffffffffffffffffffffffffffffffffffffff168152602001908152602001600020600082815260200190815260200160002060006101000a81549073ffffffffffffffffffffffffffffffffffffffff021916905550565b60008060003373ffffffffffffffffffffffffffffffffffffffff1673ffffffffffffffffffffffffffffffffffffffff168152602001908152602001600020600083815260200190815260200160002060009054906101000a900473ffffffffffffffffffffffffffffffffffffffff169050919050565b600360003373ffffffffffffffffffffffffffffffffffffffff1673ffffffffffffffffffffffffffffffffffffffff168152602001908152602001600020600082815260200190815260200160002060006101000a81549060ff021916905550565b600160003373ffffffffffffffffffffffffffffffffffffffff1673ffffffffffffffffffffffffffffffffffffffff16815260200190815260200160002060008281526020019081526020016000206000905550565b80600460003373ffffffffffffffffffffffffffffffffffffffff1673ffffffffffffffffffffffffffffffffffffffff16815260200190815260200160002060008481526020019081526020016000209080519060200190610831929190610ca9565b505050565b6000600360003373ffffffffffffffffffffffffffffffffffffffff1673ffffffffffffffffffffffffffffffffffffffff168152602001908152602001600020600083815260200190815260200160002060009054906101000a900460ff169050919050565b6060600460003373ffffffffffffffffffffffffffffffffffffffff1673ffffffffffffffffffffffffffffffffffffffff16815260200190815260200160002060008381526020019081526020016000208054600181600116156101000203166002900480601f0160208091040260200160405190810160405280929190818152602001828054600181600116156101000203166002900480156109835780601f1061095857610100808354040283529160200191610983565b820191906000526020600020905b81548152906001019060200180831161096657829003601f168201915b50505050509050919050565b80600360003373ffffffffffffffffffffffffffffffffffffffff1673ffffffffffffffffffffffffffffffffffffffff168152602001908152602001600020600084815260200190815260200160002060006101000a81548160ff0219169083151502179055505050565b6000600260003373ffffffffffffffffffffffffffffffffffffffff1673ffffffffffffffffffffffffffffffffffffffff1681526020019081526020016000206000838152602001908152602001600020549050919050565b6000600160003373ffffffffffffffffffffffffffffffffffffffff1673ffffffffffffffffffffffffffffffffffffffff1681526020019081526020016000206000838152602001908152602001600020549050919050565b806000803373ffffffffffffffffffffffffffffffffffffffff1673ffffffffffffffffffffffffffffffffffffffff168152602001908152602001600020600084815260200190815260200160002060006101000a81548173ffffffffffffffffffffffffffffffffffffffff021916908373ffffffffffffffffffffffffffffffffffffffff1602179055505050565b80600160003373ffffffffffffffffffffffffffffffffffffffff1673ffffffffffffffffffffffffffffffffffffffff1681526020019081526020016000206000848152602001908152602001600020819055505050565b80600260003373ffffffffffffffffffffffffffffffffffffffff1673ffffffffffffffffffffffffffffffffffffffff1681526020019081526020016000206000848152602001908152602001600020819055505050565b600260003373ffffffffffffffffffffffffffffffffffffffff1673ffffffffffffffffffffffffffffffffffffffff16815260200190815260200160002060008281526020019081526020016000206000905550565b600460003373ffffffffffffffffffffffffffffffffffffffff1673ffffffffffffffffffffffffffffffffffffffff16815260200190815260200160002060008281526020019081526020016000206000610ca69190610d29565b50565b828054600181600116156101000203166002900490600052602060002090601f016020900481019282601f10610cea57805160ff1916838001178555610d18565b82800160010185558215610d18579182015b82811115610d17578251825591602001919060010190610cfc565b5b509050610d259190610d71565b5090565b50805460018160011615610100020316600290046000825580601f10610d4f5750610d6e565b601f016020900490600052602060002090810190610d6d9190610d71565b5b50565b610d9391905b80821115610d8f576000816000905550600101610d77565b5090565b9056fea165627a7a72305820e822def0df9f7fc0f7fc8b8aed1276fa69e3b4559802ac1b5577249ecfbe599c0029",
  "source": "pragma solidity ^0.5.0;\n\nimport \"./Ownable.sol\";\n\ncontract KeyValueStorage {\n\n    mapping(address => mapping(bytes32 => address)) private addressStorage;\n    mapping(address => mapping(bytes32 => bytes32)) private bytesStorage;\n    mapping(address => mapping(bytes32 => uint256)) private uintStorage;\n    mapping(address => mapping(bytes32 => bool)) private boolStorage;\n    mapping(address => mapping(bytes32 => string)) private stringStorage;\n\n\n    // Additional mappings\n    mapping(bytes32 => address) private addressMapping;\n    mapping(bytes32 => bytes) private bytesMapping;\n    mapping(bytes32 => uint) private uintMapping;\n    mapping(bytes32 => bool) private boolMapping;\n    mapping(bytes32 => string) private stringMapping;\n\n    // Getters  \n    function getAddress(bytes32 key) public view returns (address) {\n        return addressStorage[msg.sender][key];\n    }\n    function getBytes(bytes32 key) public view returns (bytes32) {\n        return bytesStorage[msg.sender][key];\n    }\n    function getUint(bytes32 key) public view returns (uint) {\n        return uintStorage[msg.sender][key];\n    }\n    function getBool(bytes32 key) public view returns (bool) {\n        return boolStorage[msg.sender][key];\n    }\n    function getString(bytes32 key) public view returns (string memory) {\n        return stringStorage[msg.sender][key];\n    }\n\n    // Setters  \n    function setAddress(bytes32 key, address value) public {\n        addressStorage[msg.sender][key] = value;\n    }\n    function setBytes(bytes32 key, bytes32 value) public {\n        bytesStorage[msg.sender][key] = value;\n    }\n    function setUint(bytes32 key, uint value) public {\n        uintStorage[msg.sender][key] = value;\n    }\n    function setBool(bytes32 key, bool value) public {\n        boolStorage[msg.sender][key] = value;\n    }\n    function setString(bytes32 key, string memory value) public {\n        stringStorage[msg.sender][key] = value;\n    }\n\n    // Delete\n    function deleteAddress(bytes32 key) public {\n        delete addressStorage[msg.sender][key];\n    }\n    function deleteBytes(bytes32 key) public {\n        delete bytesStorage[msg.sender][key];\n    }\n    function deleteUint(bytes32 key) public {\n        delete uintStorage[msg.sender][key];\n    }\n    function deleteBool(bytes32 key) public {\n        delete boolStorage[msg.sender][key];\n    }\n    function deleteString(bytes32 key) public {\n        delete stringStorage[msg.sender][key];\n    }\n\n}\n",
  "sourcePath": "/home/linux/Documents/George Brown/Dapps2/proxyUpgrade/contracts/KeyValueStorage.sol",
  "compiler": {
    "name": "solc",
    "version": "0.5.0+commit.1d4f565a.Emscripten.clang"
  },
  "schemaVersion": "3.0.1",
  "updatedAt": "2019-04-29T03:24:05.330Z",
  "devdoc": {
    "methods": {}
  },
  "userdoc": {
    "methods": {}
  }
}