{
  "contractName": "LogicV1",
  "abi": [
    {
      "constant": false,
      "inputs": [
        {
          "name": "num",
          "type": "uint256"
        }
      ],
      "name": "setMaxPlayers",
      "outputs": [],
      "payable": false,
      "stateMutability": "nonpayable",
      "type": "function",
      "signature": "0x288dee3b"
    },
    {
      "constant": true,
      "inputs": [],
      "name": "getMaxPlayers",
      "outputs": [
        {
          "name": "",
          "type": "uint256"
        }
      ],
      "payable": false,
      "stateMutability": "view",
      "type": "function",
      "signature": "0x8cbd9eb8"
    },
    {
      "constant": false,
      "inputs": [
        {
          "name": "gameTitle",
          "type": "string"
        }
      ],
      "name": "setGameTitle",
      "outputs": [],
      "payable": false,
      "stateMutability": "nonpayable",
      "type": "function",
      "signature": "0x96fe3863"
    },
    {
      "constant": true,
      "inputs": [],
      "name": "getGameTitle",
      "outputs": [
        {
          "name": "",
          "type": "string"
        }
      ],
      "payable": false,
      "stateMutability": "view",
      "type": "function",
      "signature": "0xc68b6c36"
    },
    {
      "constant": false,
      "inputs": [
        {
          "name": "",
          "type": "string"
        }
      ],
      "name": "deleteGameTitle",
      "outputs": [],
      "payable": false,
      "stateMutability": "nonpayable",
      "type": "function",
      "signature": "0xebb008ce"
    },
    {
      "constant": false,
      "inputs": [
        {
          "name": "player1Bid",
          "type": "uint256"
        }
      ],
      "name": "setPlayer1Bid",
      "outputs": [],
      "payable": false,
      "stateMutability": "nonpayable",
      "type": "function",
      "signature": "0x97653053"
    },
    {
      "constant": true,
      "inputs": [],
      "name": "getPlayer1Bid",
      "outputs": [
        {
          "name": "",
          "type": "uint256"
        }
      ],
      "payable": false,
      "stateMutability": "view",
      "type": "function",
      "signature": "0x3e1b1258"
    },
    {
      "constant": false,
      "inputs": [
        {
          "name": "player2Bid",
          "type": "uint256"
        }
      ],
      "name": "setPlayer2Bid",
      "outputs": [],
      "payable": false,
      "stateMutability": "nonpayable",
      "type": "function",
      "signature": "0x495e13b5"
    },
    {
      "constant": true,
      "inputs": [],
      "name": "getPlayer2Bid",
      "outputs": [
        {
          "name": "",
          "type": "uint256"
        }
      ],
      "payable": false,
      "stateMutability": "view",
      "type": "function",
      "signature": "0x98106a60"
    }
  ],
  "bytecode": "0x608060405234801561001057600080fd5b50610d9e806100206000396000f3fe608060405260043610610099576000357c0100000000000000000000000000000000000000000000000000000000900463ffffffff168063288dee3b1461009e5780633e1b1258146100d9578063495e13b5146101045780638cbd9eb81461013f57806396fe38631461016a578063976530531461023257806398106a601461026d578063c68b6c3614610298578063ebb008ce14610328575b600080fd5b3480156100aa57600080fd5b506100d7600480360360208110156100c157600080fd5b81019080803590602001909291905050506103f0565b005b3480156100e557600080fd5b506100ee6104c3565b6040518082815260200191505060405180910390f35b34801561011057600080fd5b5061013d6004803603602081101561012757600080fd5b81019080803590602001909291905050506105b3565b005b34801561014b57600080fd5b506101546106fe565b6040518082815260200191505060405180910390f35b34801561017657600080fd5b506102306004803603602081101561018d57600080fd5b81019080803590602001906401000000008111156101aa57600080fd5b8201836020820111156101bc57600080fd5b803590602001918460018302840111640100000000831117156101de57600080fd5b91908080601f016020809104026020016040519081016040528093929190818152602001838380828437600081840152601f19601f8201169050808301925050505050505091929192905050506107ee565b005b34801561023e57600080fd5b5061026b6004803603602081101561025557600080fd5b8101908080359060200190929190505050610926565b005b34801561027957600080fd5b50610282610a71565b6040518082815260200191505060405180910390f35b3480156102a457600080fd5b506102ad610b61565b6040518080602001828103825283818151815260200191508051906020019080838360005b838110156102ed5780820151818401526020810190506102d2565b50505050905090810190601f16801561031a5780820380516001836020036101000a031916815260200191505b509250505060405180910390f35b34801561033457600080fd5b506103ee6004803603602081101561034b57600080fd5b810190808035906020019064010000000081111561036857600080fd5b82018360208201111561037a57600080fd5b8035906020019184600183028401116401000000008311171561039c57600080fd5b91908080601f016020809104026020016040519081016040528093929190818152602001838380828437600081840152601f19601f820116905080830192505050505050509192919290505050610ca7565b005b6000809054906101000a900473ffffffffffffffffffffffffffffffffffffffff1673ffffffffffffffffffffffffffffffffffffffff1663e2a4853a826040518263ffffffff167c010000000000000000000000000000000000000000000000000000000002815260040180807f506c61796572416d6f756e740000000000000000000000000000000000000000815250602001828152602001915050600060405180830381600087803b1580156104a857600080fd5b505af11580156104bc573d6000803e3d6000fd5b5050505050565b60008060009054906101000a900473ffffffffffffffffffffffffffffffffffffffff1673ffffffffffffffffffffffffffffffffffffffff1663bd02d0f56040518163ffffffff167c010000000000000000000000000000000000000000000000000000000002815260040180807f506c617965723142696400000000000000000000000000000000000000000000815250602001905060206040518083038186803b15801561057357600080fd5b505afa158015610587573d6000803e3d6000fd5b505050506040513d602081101561059d57600080fd5b8101908080519060200190929190505050905090565b60008111151561062b576040517f08c379a000000000000000000000000000000000000000000000000000000000815260040180806020018281038252600b8152602001807f696e76616c69642062696400000000000000000000000000000000000000000081525060200191505060405180910390fd5b6000809054906101000a900473ffffffffffffffffffffffffffffffffffffffff1673ffffffffffffffffffffffffffffffffffffffff1663e2a4853a826040518263ffffffff167c010000000000000000000000000000000000000000000000000000000002815260040180807f506c617965723242696400000000000000000000000000000000000000000000815250602001828152602001915050600060405180830381600087803b1580156106e357600080fd5b505af11580156106f7573d6000803e3d6000fd5b5050505050565b60008060009054906101000a900473ffffffffffffffffffffffffffffffffffffffff1673ffffffffffffffffffffffffffffffffffffffff1663bd02d0f56040518163ffffffff167c010000000000000000000000000000000000000000000000000000000002815260040180807f506c61796572416d6f756e740000000000000000000000000000000000000000815250602001905060206040518083038186803b1580156107ae57600080fd5b505afa1580156107c2573d6000803e3d6000fd5b505050506040513d60208110156107d857600080fd5b8101908080519060200190929190505050905090565b6000809054906101000a900473ffffffffffffffffffffffffffffffffffffffff1673ffffffffffffffffffffffffffffffffffffffff16636e899550826040518263ffffffff167c010000000000000000000000000000000000000000000000000000000002815260040180807f47616d655469746c65000000000000000000000000000000000000000000000081525060200180602001828103825283818151815260200191508051906020019080838360005b838110156108bf5780820151818401526020810190506108a4565b50505050905090810190601f1680156108ec5780820380516001836020036101000a031916815260200191505b5092505050600060405180830381600087803b15801561090b57600080fd5b505af115801561091f573d6000803e3d6000fd5b5050505050565b60008111151561099e576040517f08c379a000000000000000000000000000000000000000000000000000000000815260040180806020018281038252600b8152602001807f696e76616c69642062696400000000000000000000000000000000000000000081525060200191505060405180910390fd5b6000809054906101000a900473ffffffffffffffffffffffffffffffffffffffff1673ffffffffffffffffffffffffffffffffffffffff1663e2a4853a826040518263ffffffff167c010000000000000000000000000000000000000000000000000000000002815260040180807f506c617965723142696400000000000000000000000000000000000000000000815250602001828152602001915050600060405180830381600087803b158015610a5657600080fd5b505af1158015610a6a573d6000803e3d6000fd5b5050505050565b60008060009054906101000a900473ffffffffffffffffffffffffffffffffffffffff1673ffffffffffffffffffffffffffffffffffffffff1663bd02d0f56040518163ffffffff167c010000000000000000000000000000000000000000000000000000000002815260040180807f506c617965723242696400000000000000000000000000000000000000000000815250602001905060206040518083038186803b158015610b2157600080fd5b505afa158015610b35573d6000803e3d6000fd5b505050506040513d6020811015610b4b57600080fd5b8101908080519060200190929190505050905090565b60606000809054906101000a900473ffffffffffffffffffffffffffffffffffffffff1673ffffffffffffffffffffffffffffffffffffffff1663986e791a6040518163ffffffff167c010000000000000000000000000000000000000000000000000000000002815260040180807f47616d655469746c650000000000000000000000000000000000000000000000815250602001905060006040518083038186803b158015610c1157600080fd5b505afa158015610c25573d6000803e3d6000fd5b505050506040513d6000823e3d601f19601f820116820180604052506020811015610c4f57600080fd5b810190808051640100000000811115610c6757600080fd5b82810190506020810184811115610c7d57600080fd5b8151856001820283011164010000000082111715610c9a57600080fd5b5050929190505050905090565b6000809054906101000a900473ffffffffffffffffffffffffffffffffffffffff1673ffffffffffffffffffffffffffffffffffffffff1663f6bb3cc46040518163ffffffff167c010000000000000000000000000000000000000000000000000000000002815260040180807f47616d655469746c6500000000000000000000000000000000000000000000008152506020019050600060405180830381600087803b158015610d5757600080fd5b505af1158015610d6b573d6000803e3d6000fd5b505050505056fea165627a7a72305820afd749d4a6d19f1906e722b9e664411f8d655b626b96a4e16ec8f6ddaef5e0210029",
  "source": "pragma solidity ^0.5.0;\n\nimport \"./SafeMath.sol\";\nimport \"./StorageLibrary.sol\";\n\ncontract LogicV1 is StorageState {\n    using SafeMath for uint256;\n    \n    function setMaxPlayers(uint256 num) public {\n        database.setUint(\"PlayerAmount\", num);\n    }\n\n    function getMaxPlayers() view public returns (uint256) {\n        return database.getUint(\"PlayerAmount\");\n    }\n\n    function setGameTitle(string memory gameTitle) public {\n        database.setString(\"GameTitle\", gameTitle);\n    }\n\n    function getGameTitle() view public returns (string memory) {\n        return database.getString(\"GameTitle\");\n    }\n\n    function deleteGameTitle(string memory) public {\n        return database.deleteString(\"GameTitle\");\n    }\n\n    function setPlayer1Bid(uint256 player1Bid) public {\n        require (player1Bid > 0 , \"invalid bid\");\n        database.setUint(\"Player1Bid\", player1Bid);\n    }\n\n    function getPlayer1Bid() view public returns (uint256) {\n        return database.getUint(\"Player1Bid\");\n    }\n\n    function setPlayer2Bid(uint256 player2Bid) public {\n        require (player2Bid > 0 , \"invalid bid\");\n        database.setUint(\"Player2Bid\", player2Bid);\n    }\n\n    function getPlayer2Bid() view public returns (uint256) {\n        return database.getUint(\"Player2Bid\");\n    }\n\n}",
  "sourcePath": "/home/linux/Documents/George Brown/Dapps2/proxyUpgrade/contracts/LogicV1.sol",
  "compiler": {
    "name": "solc",
    "version": "0.5.0+commit.1d4f565a.Emscripten.clang"
  },
  "schemaVersion": "3.0.1",
  "updatedAt": "2019-04-29T03:24:05.870Z",
  "devdoc": {
    "methods": {}
  },
  "userdoc": {
    "methods": {}
  }
}