{
  "contractName": "LogicV2",
  "abi": [
    {
      "constant": false,
      "inputs": [
        {
          "name": "num",
          "type": "uint256"
        }
      ],
      "name": "setMaxPlayers",
      "outputs": [],
      "payable": false,
      "stateMutability": "nonpayable",
      "type": "function",
      "signature": "0x288dee3b"
    },
    {
      "constant": true,
      "inputs": [],
      "name": "getMaxPlayers",
      "outputs": [
        {
          "name": "",
          "type": "uint256"
        }
      ],
      "payable": false,
      "stateMutability": "view",
      "type": "function",
      "signature": "0x8cbd9eb8"
    },
    {
      "constant": false,
      "inputs": [
        {
          "name": "",
          "type": "string"
        }
      ],
      "name": "deleteGameTitle",
      "outputs": [],
      "payable": false,
      "stateMutability": "nonpayable",
      "type": "function",
      "signature": "0xebb008ce"
    },
    {
      "constant": false,
      "inputs": [
        {
          "name": "_gameTitle",
          "type": "string"
        }
      ],
      "name": "setGameLibrary",
      "outputs": [],
      "payable": false,
      "stateMutability": "nonpayable",
      "type": "function",
      "signature": "0x446c68ce"
    },
    {
      "constant": true,
      "inputs": [],
      "name": "getGameLibrary",
      "outputs": [
        {
          "name": "_gameTitle",
          "type": "string"
        }
      ],
      "payable": false,
      "stateMutability": "view",
      "type": "function",
      "signature": "0xd3b5e943"
    }
  ],
  "bytecode": "0x608060405234801561001057600080fd5b50610872806100206000396000f3fe60806040526004361061006d576000357c0100000000000000000000000000000000000000000000000000000000900463ffffffff168063288dee3b14610072578063446c68ce146100ad5780638cbd9eb814610175578063d3b5e943146101a0578063ebb008ce14610230575b600080fd5b34801561007e57600080fd5b506100ab6004803603602081101561009557600080fd5b81019080803590602001909291905050506102f8565b005b3480156100b957600080fd5b50610173600480360360208110156100d057600080fd5b81019080803590602001906401000000008111156100ed57600080fd5b8201836020820111156100ff57600080fd5b8035906020019184600183028401116401000000008311171561012157600080fd5b91908080601f016020809104026020016040519081016040528093929190818152602001838380828437600081840152601f19601f8201169050808301925050505050505091929192905050506103cb565b005b34801561018157600080fd5b5061018a610523565b6040518082815260200191505060405180910390f35b3480156101ac57600080fd5b506101b5610613565b6040518080602001828103825283818151815260200191508051906020019080838360005b838110156101f55780820151818401526020810190506101da565b50505050905090810190601f1680156102225780820380516001836020036101000a031916815260200191505b509250505060405180910390f35b34801561023c57600080fd5b506102f66004803603602081101561025357600080fd5b810190808035906020019064010000000081111561027057600080fd5b82018360208201111561028257600080fd5b803590602001918460018302840111640100000000831117156102a457600080fd5b91908080601f016020809104026020016040519081016040528093929190818152602001838380828437600081840152601f19601f82011690508083019250505050505050919291929050505061077b565b005b6000809054906101000a900473ffffffffffffffffffffffffffffffffffffffff1673ffffffffffffffffffffffffffffffffffffffff1663e2a4853a826040518263ffffffff167c010000000000000000000000000000000000000000000000000000000002815260040180807f506c61796572416d6f756e740000000000000000000000000000000000000000815250602001828152602001915050600060405180830381600087803b1580156103b057600080fd5b505af11580156103c4573d6000803e3d6000fd5b5050505050565b6000809054906101000a900473ffffffffffffffffffffffffffffffffffffffff1673ffffffffffffffffffffffffffffffffffffffff1673__StorageLibrary________________________633816751d9091836040518363ffffffff167c0100000000000000000000000000000000000000000000000000000000028152600401808373ffffffffffffffffffffffffffffffffffffffff1673ffffffffffffffffffffffffffffffffffffffff16815260200180602001828103825283818151815260200191508051906020019080838360005b838110156104bd5780820151818401526020810190506104a2565b50505050905090810190601f1680156104ea5780820380516001836020036101000a031916815260200191505b50935050505060006040518083038186803b15801561050857600080fd5b505af415801561051c573d6000803e3d6000fd5b5050505050565b60008060009054906101000a900473ffffffffffffffffffffffffffffffffffffffff1673ffffffffffffffffffffffffffffffffffffffff1663bd02d0f56040518163ffffffff167c010000000000000000000000000000000000000000000000000000000002815260040180807f506c61796572416d6f756e740000000000000000000000000000000000000000815250602001905060206040518083038186803b1580156105d357600080fd5b505afa1580156105e7573d6000803e3d6000fd5b505050506040513d60208110156105fd57600080fd5b8101908080519060200190929190505050905090565b60606000809054906101000a900473ffffffffffffffffffffffffffffffffffffffff1673ffffffffffffffffffffffffffffffffffffffff1673__StorageLibrary________________________63038632f490916040518263ffffffff167c0100000000000000000000000000000000000000000000000000000000028152600401808273ffffffffffffffffffffffffffffffffffffffff1673ffffffffffffffffffffffffffffffffffffffff16815260200191505060006040518083038186803b1580156106e557600080fd5b505af41580156106f9573d6000803e3d6000fd5b505050506040513d6000823e3d601f19601f82011682018060405250602081101561072357600080fd5b81019080805164010000000081111561073b57600080fd5b8281019050602081018481111561075157600080fd5b815185600182028301116401000000008211171561076e57600080fd5b5050929190505050905090565b6000809054906101000a900473ffffffffffffffffffffffffffffffffffffffff1673ffffffffffffffffffffffffffffffffffffffff1663f6bb3cc46040518163ffffffff167c010000000000000000000000000000000000000000000000000000000002815260040180807f47616d655469746c6500000000000000000000000000000000000000000000008152506020019050600060405180830381600087803b15801561082b57600080fd5b505af115801561083f573d6000803e3d6000fd5b505050505056fea165627a7a7230582049279a18899dfca256c4bb21ca836aa97434b157e8c6b2dbc7715232adbd97980029",
  "source": "pragma solidity ^0.5.0;\n\nimport \"./SafeMath.sol\";\nimport \"./LogicV1.sol\";\nimport \"./Ownable.sol\";\nimport \"./StorageLibrary.sol\";\n\ncontract LogicV2 is StorageState {\n    using SafeMath for uint256;\n    using StorageLibrary for KeyValueStorage;\n    \n    modifier onlyOwner() {\n        require(msg.sender == database.getAddress(\"owner\"), \"not owner\");\n        _;\n    }\n\n    function setMaxPlayers(uint256 num) public {\n        database.setUint(\"PlayerAmount\", num);\n    }\n\n    function getMaxPlayers() view public returns (uint256) {\n        return database.getUint(\"PlayerAmount\");\n    }\n\n    function deleteGameTitle(string memory) public {\n        return database.deleteString(\"GameTitle\");\n    }\n\n    // Implement Library\n    function setGameLibrary(string memory _gameTitle) public {\n        database.setGame(_gameTitle);\n    }\n\n    function getGameLibrary() public view returns (string memory _gameTitle) {\n        return database.getGame();\n    }\n}",
  "sourcePath": "/home/linux/Documents/George Brown/Dapps2/proxyUpgrade/contracts/LogicV2.sol",
  "compiler": {
    "name": "solc",
    "version": "0.5.0+commit.1d4f565a.Emscripten.clang"
  },
  "schemaVersion": "3.0.1",
  "updatedAt": "2019-04-29T03:24:05.872Z",
  "devdoc": {
    "methods": {}
  },
  "userdoc": {
    "methods": {}
  }
}