{
  "contractName": "StorageLibrary",
  "abi": [
    {
      "anonymous": false,
      "inputs": [
        {
          "indexed": false,
          "name": "changed",
          "type": "bool"
        }
      ],
      "name": "UpdateGame",
      "type": "event",
      "signature": "0x65b6d37a2fadcda5b30b83d1f4a14136ed9958b1b434284a78d8ad499d3eabb3"
    },
    {
      "constant": false,
      "inputs": [
        {
          "name": "database",
          "type": "KeyValueStorage"
        },
        {
          "name": "_gameTitle",
          "type": "string"
        }
      ],
      "name": "setGame",
      "outputs": [],
      "payable": false,
      "stateMutability": "nonpayable",
      "type": "function",
      "signature": "0x3816751d"
    },
    {
      "constant": true,
      "inputs": [
        {
          "name": "database",
          "type": "KeyValueStorage"
        }
      ],
      "name": "getGame",
      "outputs": [
        {
          "name": "_gametitle",
          "type": "string"
        }
      ],
      "payable": false,
      "stateMutability": "view",
      "type": "function",
      "signature": "0x038632f4"
    }
  ],
  "bytecode": "0x6104de610030600b82828239805160001a6073146000811461002057610022565bfe5b5030600052607381538281f3fe7300000000000000000000000000000000000000003014608060405260043610610063576000357c0100000000000000000000000000000000000000000000000000000000900463ffffffff168063038632f4146100685780633816751d14610125575b600080fd5b6100aa6004803603602081101561007e57600080fd5b81019080803573ffffffffffffffffffffffffffffffffffffffff16906020019092919050505061020d565b6040518080602001828103825283818151815260200191508051906020019080838360005b838110156100ea5780820151818401526020810190506100cf565b50505050905090810190601f1680156101175780820380516001836020036101000a031916815260200191505b509250505060405180910390f35b81801561013157600080fd5b5061020b6004803603604081101561014857600080fd5b81019080803573ffffffffffffffffffffffffffffffffffffffff1690602001909291908035906020019064010000000081111561018557600080fd5b82018360208201111561019757600080fd5b803590602001918460018302840111640100000000831117156101b957600080fd5b91908080601f016020809104026020016040519081016040528093929190818152602001838380828437600081840152601f19601f820116905080830192505050505050509192919290505050610349565b005b60608173ffffffffffffffffffffffffffffffffffffffff1663986e791a60405180807f47616d655469746c650000000000000000000000000000000000000000000000815250600901905060405180910390206040518263ffffffff167c01000000000000000000000000000000000000000000000000000000000281526004018082815260200191505060006040518083038186803b1580156102b157600080fd5b505afa1580156102c5573d6000803e3d6000fd5b505050506040513d6000823e3d601f19601f8201168201806040525060208110156102ef57600080fd5b81019080805164010000000081111561030757600080fd5b8281019050602081018481111561031d57600080fd5b815185600182028301116401000000008211171561033a57600080fd5b50509291905050509050919050565b8173ffffffffffffffffffffffffffffffffffffffff16636e89955060405180807f47616d655469746c65000000000000000000000000000000000000000000000081525060090190506040518091039020836040518363ffffffff167c01000000000000000000000000000000000000000000000000000000000281526004018083815260200180602001828103825283818151815260200191508051906020019080838360005b8381101561040d5780820151818401526020810190506103f2565b50505050905090810190601f16801561043a5780820380516001836020036101000a031916815260200191505b509350505050600060405180830381600087803b15801561045a57600080fd5b505af115801561046e573d6000803e3d6000fd5b505050507f65b6d37a2fadcda5b30b83d1f4a14136ed9958b1b434284a78d8ad499d3eabb36001604051808215151515815260200191505060405180910390a1505056fea165627a7a72305820777d1c883788910661c30c6a78dfc83f82f56e340447d2ad38f771b869d6affa0029",
  "source": "pragma solidity ^0.5.0;\n\nimport \"./KeyValueStorage.sol\";\n\ncontract StorageState {\n    KeyValueStorage database; \n}\n\nlibrary StorageLibrary {\n\n    event UpdateGame (bool changed);\n    \n    // struct Game {\n    //     string gameTitle;\n    //     uint gameCounter;\n    //     uint Player1Bid;\n    //     uint Player2Bid;\n    // }\n\n    // function init(Game storage self, string memory _gameTitle, uint _gameCounter) public {\n    //     self.gameTitle = _gameTitle;\n    //     self.gameCounter = _gameCounter;\n    // }\n\n    function setGame(KeyValueStorage database, string memory _gameTitle) public {\n        database.setString(keccak256(\"GameTitle\"), _gameTitle);\n\n        emit UpdateGame(true);\n    }\n\n    function getGame(KeyValueStorage database) public view returns (string memory _gametitle) {\n       \n        return database.getString(keccak256(\"GameTitle\"));\n    }\n}\n",
  "sourcePath": "/home/linux/Documents/George Brown/Dapps2/proxyUpgrade/contracts/StorageLibrary.sol",
  "compiler": {
    "name": "solc",
    "version": "0.5.0+commit.1d4f565a.Emscripten.clang"
  },
  "schemaVersion": "3.0.1",
  "updatedAt": "2019-04-29T03:24:05.867Z",
  "devdoc": {
    "methods": {}
  },
  "userdoc": {
    "methods": {}
  }
}